:100000006F00E15613000000130000001300000011
:100010001300000013000000130000001300000094
:100020001300000013000000130000001300000084
:08003000130000007300100032
:10003800000000000000000038040100580401001E
:1000480000000000B40401000000000000000000EF
:10005800B6040100B8040100000000000000000020
:100068001611010000000000D0020000000000008E
:10007800BE040100C0040100C2040100C404010060
:10008800C6040100C8040100B60A0100DE0A010026
:10009800060B01002E0B0100560B0100D4040100D1
:1000A800D6040100D8040100DA040100DC040100D0
:1000B800DE040100E0040100E2040100E4040100A0
:1000C800E6040100E8040100EA0401007E0B0100D7
:1000D800EE040100F0040100F2040100F404010040
:1000E800F6040100F8040100FA040100FC04010010
:1000F800FE040100000501000205010004050100DD
:1001080006050100200F01003C0F01000C0501004D
:100118000E0501001005010012050100140501007B
:1001280016050100180501001A0501001C0501004B
:100138001E0501002005010022050100240501001B
:1001480026050100280501002A0501002C050100EB
:100158002E050100300501003205010034050100BB
:1001680036050100380501003A0501003C0501008B
:100178003E0501004005010042050100440501005B
:1001880046050100480501004A0501004C0501002B
:100198004E050100500501005205010054050100FB
:1001A80056050100580501005A0501005C050100CB
:1001B8005E0501006005010062050100640501009B
:1001C80066050100680501006A0501006C0501006B
:1001D8000000000000000000000000000000000017
:1001E8000000000000000000000000000000000007
:0801F8000000000000000000FF
:1002000097020220938202E0938202E0739002340C
:1002100003210500224573100530B1A81971232070
:10022000250006C006C216CAF322003093F28200EF
:10023000638402009302000816C412C81ACC1ECEB2
:1002400022D026D22AD42ED632D836DA3ADC3EDE76
:10025000C2C0C6C2CAC4CEC6D2C8D6CADACCDECEE6
:10026000E2D0E6D2EAD4EED6F2D8F6DAFADCFEDE56
:1002700003A1050009A0024573101534924037858B
:1002800000001305058073200530224573200530DA
:100290004242D2426243F243025492542255B25532
:1002A0004256D2566257F257064896482649B649F2
:1002B000464AD64A664BF64B065C965C265DB65DB2
:1002C000465ED65E665FF65F09617300203000000F
:1002D000197116CA9302000816C49302000273A093
:1002E000428006C212C81ACC1ECE22D026D22AD4F0
:1002F0002ED632D836DA3ADC3EDEC2C0C6C2CAC416
:10030000CEC6D2C8D6CADACCDECEE2D0E6D2EAD4A5
:10031000EED6F2D8F6DAFADCFEDE73110134EF1015
:10032000E053EF007152EF10405673110134138403
:10033000C1970329040063040902232004007325E4
:1003400010342AC013844197044023A0240013844E
:100350008197044003A104000245731015349240B4
:10036000B78200009382028073A00230A24273A081
:1003700002304242D2426243F24302549254225526
:10038000B2554256D2566257F25706489648264909
:10039000B649464AD64A664BF64B065C965C265DE5
:1003A000B65D465ED65E665FF65F0961730020301B
:1003B0000000397101436EC619A0397141536AC8F2
:1003C00066CA62CC5ECE19A0397101535AD056D29A
:1003D00052D44ED64AD826DA22DC06DE33016140FA
:1003E000828241114AC026C222C406C68282B24D10
:1003F0004101024D924C224CB24B4101024B924AB8
:10040000224AB2494101024992442244B240410188
:1004100082803D432A876373C3029377F700BDEF61
:10042000ADE5937606FF3D8ABA960CC34CC30CC764
:100430004CC74107E36BD7FE11E28280B306C3408D
:100440008A069702000096966780A6002307B700E9
:10045000A306B7002306B700A305B7002305B7001E
:10046000A304B7002304B700A303B7002303B70016
:10047000A302B7002302B700A301B7002301B7000E
:10048000A300B7002300B700828093F5F50F939681
:100490008500D58D93960501D58D61B7939627007C
:1004A0009702000096968682E78086FA9680C117AA
:1004B0001D8F3E96E374C3F8A5B73367B500FD53AF
:1004C0000D8B79E7B7877F7F9387F7F710419441CA
:1004D000B372F6003363F600BE92B3E26200639536
:1004E000720C6318D6065041D441B372F6003363E0
:1004F000F600BE92B3E262006396720A631BD604F2
:1005000010459445B372F6003363F600BE92B3E231
:100510006200639F7208631ED6025045D445B372D1
:10052000F6003363F600BE92B3E26200639872088D
:100530006311D60210499449B372F6003363F60092
:10054000BE92B3E26200639172085105D105E30FD8
:10055000D6F61317060193970601631CF70013578D
:10056000060193D706013305F7409375F50F91E91E
:1005700082804183C1833305F7409375F50F91E184
:1005800082801377F70F93F7F70F3305F7408280D8
:1005900010219421050585056313D60075FA3305EE
:1005A000D640828011059105E314D6FE0145828074
:1005B0002105A105E31ED6FC014582803105B10568
:1005C000E318D6FC014582804105C105E312D6FC43
:1005D0000145828003A581848280EFF29FE0EF00D5
:1005E00091279387818498432A84050798C3EF2035
:1005F000B0183C45FD173CC58DE37C413CC58347A5
:10060000450393E78700230AF5022285EF00712551
:10061000EF200062EF304012FDB32285EF0071241D
:10062000D5BF634205029307803E3347F502336529
:10063000F5023305F5021305753E3345F502330720
:10064000F7023A9582807D5582800145828001457E
:1006500082800145828001458280EFF2FFD6696485
:10066000E964130444439384444437490100B7497F
:1006700001006363940059B30C40130549C8210479
:10068000EF10F0258327C4FF8297AA85138549C9F7
:10069000EF10F024F9BFEFF23FD337450100130507
:1006A00005CA6964E964EF109023130444449384F9
:1006B000C44837490100B7490100636394003DBB5A
:1006C0000C40130549C82104EF1070218327C4FF93
:1006D0008297AA85138549C9EF107020F9BFEFF200
:1006E0005FD0553FEF00513939BBEFF29FCF8566A0
:1006F000B705000037450100D147154793860680AE
:1007000001469385E56D1305C5C6EF2050122A8476
:1007100001EDD165374501001306B00C9385C5C2C4
:10072000130545C7EF10D0292285EF20B03BE1B972
:10073000EFF23FCBEF003112EF009116EF10901F58
:10074000EF30E00AEF20803C4D37EF30E00AA92976
:10075000EF20804A014545B9EFF2BFC8D13F0145BE
:100760005DB1EFF21FC82A8401EDD1653745010064
:1007700013063005938505CC130545D9EF10502499
:100780002285EF20C02DA547630DF500D1653745C3
:10079000010013064005938505CC130545DAEF10DB
:1007A00030222285EF20202901EDD1653745010057
:1007B00013065005938505CC130505DEEF10502078
:1007C0002285EF20401101453DB9EFF29FC1A545BB
:1007D000EF20602B0DB909E57D5582807D5525B14F
:1007E000EFF23FC02A842E853289AE84F93F7DF531
:1007F00022852686A545EF20800493078404231CC8
:100800002401230E0400231D0400232004042322BA
:1008100004047CC43CC40145D9B7EFF29FBC2A84D0
:100820002E8901EDD165374501001306900C9385A3
:1008300085CD130545D9EF10B0182285EF20202271
:10084000A547630DF500D165374501001306A00CDF
:10085000938585CD130545DAEF1090161E2CC18BBC
:100860008DE71C5499CF22858297AA8419C92A86BC
:1008700037450100A285130585D4EF105006268563
:1008800059B61E2C93E707011EAC1E2CA18B89C7FD
:100890003E2CE554A18BE5F75C5485CFCA852285B3
:1008A0008297AA8421E13E2C93E787003EAC5C2C22
:1008B000850793F7F70F5CACF9F3D1653745010075
:1008C0001306800F938585CD130505D8EF10500FC3
:1008D0007DB785679387F7F03379F900231D2401ED
:1008E0008144D1B7E957E31CF5F875BFEFF27FAF4C
:1008F0002A8401EDD165374501001306A0109385C8
:1009000085CE130545D9EF10B00B2285EF202015B9
:10091000A547630DF500D165374501001306B010FA
:10092000938585CE130545DAEF1090095C2C7D5533
:100930009DC3FD1793F7F70F5CAC014589EF1C5879
:1009400089E70145231D040039A02285829775D9C6
:10095000E957E309F5FE45BCEFF21FA72A84AE84F0
:100960003289B68901EDD165374501001306401380
:10097000938585CF130545D9EF1090042285EF208C
:10098000000EA547630DF500D1653745010013063C
:100990005013938585CF130545DAEF1070025C2C58
:1009A0007D5591CB5C5899C7CE864A86A68522850F
:1009B0008297A9B46955EF10A0090145DDBFEFF298
:1009C000BFA02A84AE843289B68901EDD16537454E
:1009D00001001306B015938585D0130545D9EF1096
:1009E000207E2285EF20A007A547630DF500D16585
:1009F000374501001306C015938585D0130545DAE8
:100A0000EF10007C5C2C7D5591CB1C5C99C7CE8689
:100A10004A86A68522858297D5B26955EF10400394
:100A20000145DDBFEFF2FF9B2A84AE84328901EDE0
:100A3000D165374501001306C017938585D113058D
:100A400045D9EF10E0772285EF206001A547630DBF
:100A5000F500D165374501001306D017938585D180
:100A6000130545DAEF10C0755C5C695589C74A8685
:100A7000A685228582976FF01F99EFF29F962A84B0
:100A8000AE8401EDD16537450100130660199385E9
:100A9000C5D2130545D9EF10A0722285EF10307C26
:100AA000A547630DF500D1653745010013067019A0
:100AB0009385C5D2130545DAEF10807004D0014547
:100AC0006FF07F94B70700209387874794431307FD
:100AD000450198C3D8C254C91CCD82803707002075
:100AE000130787471C430145638AE7009443D843B3
:100AF0001385C7FED8C214C3DCC39CC38280EFF247
:100B0000DF8B5169B74A0100379B0100854B138485
:100B1000C1A0930404011C4091C382971104E31CFB
:100B200094FEEF0041532A84EF00105919CD93052C
:100B300089E01385CAE1EF10805A1306B00C9305C3
:100B400089E013054B65EF10A0672285EF00615126
:100B5000EF006150AA8459372A8409E52685EF0001
:100B6000415075B783298507638A09002685EF0000
:100B7000414F22858299EF00014EAA842285EF1011
:100B8000906B631975012285EF10F0542685EF00F4
:100B9000414D41BF2685EF00C14C0854EF10B01FF6
:100BA0002285EF109062B5BFEFF2BF834111B745C8
:100BB00001000146938545E42800EF10A04C37164C
:100BC00000002C00930800027D4893070020138743
:100BD000C1A181461306E6AF1385C198EF2080338B
:100BE0001385C198EF20007041016FF0DF81EFF2B3
:100BF0004FFF2A84FD541C406315F40001456FF03B
:100C00009F80EF0041452A89084044CD3115EF20EF
:100C1000E0644A85EF00E144F9BFEFF28FFC311543
:100C2000EF20C06301456FF00FFEEFF28FFB411123
:100C30002A842E8532C62EC4EF20A04D3246A2450E
:100C400005C285476309F602D16537950100130691
:100C500070099385C5E413054565EF10605601A83A
:100C60005840938745011CC398CD5CC0C0C901455D
:100C700041016FF04FF91C406388870083C655031C
:100C800003C7170263FAE600D4431387450198C2ED
:100C900094CDD8C3DCC9E1BF9C43F9BFEFF2CFF2DA
:100CA0002A84AE89B284368901EDD16537450100C9
:100CB00013060012938505E613058516EF104050C4
:100CC000C16763EDF400D1653745010013061012CA
:100CD000938505E613058517EF10804E22854E8615
:100CE0008945EF10D035930744011CCC5CC846AC55
:100CF000A304240101456FF06FF0EFF28FEE2A8418
:100D000001EDD16537450100130690149385C5E6C2
:100D100013058516EF10C04A2285EF1050548947FD
:100D2000630DF500D165374501001306A0149385C6
:100D3000C5E61305050FEF10A0482285EF10B04F50
:100D400001EDD165374501001306B0149385C5E662
:100D500013058513EF10C04613054401493D228554
:100D6000EF10703701456FF00FEAEFF2EFE5AA8957
:100D70002E843289EF00212E2A8AEF00F03305C538
:100D8000D164374501009385C4E71305C5E1EF1031
:100D90000035379501001306C0179385C4E7130586
:100DA0004565EF10E0415285EF00A12BC167636DEF
:100DB000F400D165374501001306D0179385C5E7C8
:100DC00013058517EF10C03FCE850945EF1030356C
:100DD00001C9930745011CCD5CC942ADA30425019F
:100DE0006FF0CFE1EFF2EFDF2A84EF00C1262A890E
:100DF000EF00902C05C5D164374501009385C4E808
:100E00001305C5E1EF10A02D379501001306601AF8
:100E10009385C4E813054565EF10803A4A85EF00D5
:100E2000412401ECD165374501001306901A9385E2
:100E3000C5E813058516EF10A0382285EF10304263
:100E40008947630DF500D165374501001306A01AE7
:100E50009385C5E81305050FEF1080362285EF1046
:100E6000903D01CDD165374501001306B01A938539
:100E7000C5E81305450BEF10A03413054401853B6D
:100E80002285EF10903401456FF0EFD7EFF2CFD30A
:100E900041112EC62A8401EDD165374501001306A4
:100EA000601D9385C5E913058516EF106031228515
:100EB000EF10F03A8947630DF500D1653745010021
:100EC0001306701D9385C5E91305050FEF10402F1C
:100ED00083A7418999C322858297EF00C1175E2CB1
:100EE000AA8989CFFD175EACEF00A11783A70189FE
:100EF000014591CB22858297014531A0B24799E700
:100F0000EF002116795541016FF04FCFEF00A1148A
:100F10002A89EF20600605E5D164374501009385F5
:100F2000C4E91305C518EF10801B3795010013069F
:100F3000701F9385C4E913054565EF106028EF0025
:100F400081112A8AEF00501705C5D1643745010089
:100F50009385C4E91305C5E1EF10601837950100CA
:100F60001306701F9385C4E913054565EF104025EE
:100F70005285EF00010F4A85EF00A10EEF10D07FE0
:100F8000232805021034AA85AA8413054401713967
:100F9000B247635CF0001389C404700081454A8540
:100FA000EF2040704A85EF20205B4E85EF00610BFB
:100FB000EF1010488858E30B05F2B1B7EFF26FC29B
:100FC0008145E9356FF02FC4EFF2AFC141112A849A
:100FD00001EDD1653745010013060025938585EAAB
:100FE00013058516EF10C01D2285EF105027894785
:100FF000630DF500D1653745010013061025938573
:1010000085EA1305050FEF10A01B83A7C18899C3BC
:1010100022858297EF0021045C4813074401AA84CB
:10102000638FE7003E85D53E05442685EF006103CA
:10103000014515C02AC6EF10B03F324529A85E2CE5
:1010400041677D176386E70085075EAC0144F1BF09
:10105000EF002101755541016FF0EFBAEFF26FB863
:101060002A84AE84328901EDD1653745010013062B
:101070001029938585EB13058516EF1060142285E2
:10108000EF10F01D8947630DF500D165374501006C
:1010900013062029938585EB1305050FEF104012E9
:1010A00085477D556391F402EFF0F07AAA84130529
:1010B0004401EFF0DFB32685231E2401EFF0707AA0
:1010C000EF10103701456FF00FB4EFF28FB12A84A3
:1010D000AE8401EDD165374501001306702D93856F
:1010E00085EC1305050AEF10A00D228526868D4597
:1010F000EF10E074930744011CCC5CC8B707FF00F5
:1011000085075CCC8547232004021CB401456FF0A1
:101110008FAFEFF20FAD2A8401EDD16537450100A5
:1011200013061030938585ED1305050AEF1040096D
:101130002285EF10D0128D47630DF500D16537453C
:10114000010013062030938585ED13058502EF100D
:1011500020072285EF10300E01EDD16537450100E3
:1011600013063030938585ED1305C506EF10400555
:1011700013054401EFF0BFA72285EF10C0750145AC
:101180006FF06FA8EFF2EFA5AA84EFF0D06C2A8978
:10119000EF00807205C5516437450100930584EE68
:1011A0001305C5E1EF00B0733795010013068032D7
:1011B000930584EE13054565EF1080004A85EFF036
:1011C000506AA6850D45EF10807509CD930745013E
:1011D0001CCD5CC9B707FF0085075CCD8547232080
:1011E00005021CB56FF02FA2EFF2AF9F2A84EFF03B
:1011F00090662A89EF00406C05C5D164374501002F
:10120000938584EF1305C5E1EF00706D37950100FC
:1012100013063035938584EF13054565EF00507A4A
:101220004A85EFF0106401ECD165374501001306E3
:101230006035938585EF1305050AEF0070782285E8
:10124000EF10F0018D47630DF500D16537450100C2
:1012500013067035938585EF13058502EF005076F0
:101260002285EF10407D01CDD16537450100130681
:101270008035938585EF130585FEEF0070741305A7
:101280004401EFF0DF962285EF10207401456FF0E6
:101290008F97EFF26F9341112A842EC6EFF0B05B67
:1012A0002A89EF10704D05E5D1643745010093851B
:1012B00084F01305C518EF009062379501001306FE
:1012C0003038938584F013054565EF00706FEFF0BB
:1012D0009058AA89D52305C5D16437450100938567
:1012E00084F01305C5E1EF00905F37950100130608
:1012F0003038938584F013054565EF00706C4E859A
:10130000EFF030564A85EFF0D05501ECD165374506
:10131000010013066038938585F01305050AEF0078
:10132000306A2285EF10A0738D47630DF500D165FB
:101330003745010013067038938585F01305850243
:10134000EF001068EF105043AA84EFF0D05083A74D
:1013500041892A8999C322858297085023A80402CB
:10136000631495027C3C1307F00F6388E70285073E
:101370007CBC4A85EFF0F04E83A70189014595C3F7
:1013800022858297014531A85E2C99CFFD175EAC6E
:1013900004D083C754037CACF1B74A85EFF0704C9E
:1013A000755541016FF08F85B24781EBF9574A853A
:1013B0009CD8EFF0104B7955EDB703C75403834722
:1013C00055036377F700138654038945EF10307A8D
:1013D0001034A68513054401EFF03F85B247635CE6
:1013E000F0009389C404700081454E85EF20802B66
:1013F0004E85EF2060164A85EFF0B046EF1050039F
:10140000885845F1EFF030452A89A5B7EFE2DFFBB8
:1014100041112A8401EDD165374501001306B0431F
:10142000938585F11305050AEF0090592285EF1089
:1014300000638D47630DF500D16537450100130644
:10144000C043938585F113058502EF007057EFF0D7
:1014500090402A89EF10503205E5D16437450100EC
:10146000938584F11305C518EF0070473795010087
:1014700013061044938584F113054565EF0050541D
:10148000EFF0703DAA890D2905C5D16437450100EB
:10149000938584F11305C5E1EF0070443795010091
:1014A00013061044938584F113054565EF005051F0
:1014B0004E85EFF0103B4A85EFF0B03AEF10D02B9D
:1014C0002A89EFF0503983A7C188AA8499C322855D
:1014D00082971C50638C2701FD5726852328F9022B
:1014E000EFF030387D5541016FE05FF17C3CFD1736
:1014F00093F7F70F7CBCB5E7782C83475903630853
:10150000F7001306E40189454A85EF105066484804
:1015100093074401630CF5029307C5FE1CD0834773
:1015200015021307F00F7CAC7C3C638EE702850745
:101530007CBCEFF08FEE05442685EFF0903201453C
:101540005DD02AC6EF10C06E324571BF5E2C416778
:101550007D17638AE70085075EACFD5723200402F0
:101560007CAC0144D1BF2685EFF0B02F7555A5BFE7
:10157000EFE29FE52A89AE84EFF0F02DAA892D2EA7
:1015800005C55164374501009305C4F21305C5E153
:10159000EF00F03437950100130660549305C4F250
:1015A00013054565EF00D0414E85EFF0902BCA85BD
:1015B0001145EF10C03601C99307450104B51CCD94
:1015C0005CC9232E05006FE07FE3EFE2FFDF4111EE
:1015D0002A84AE8401EDD165374501001306C05958
:1015E0009385C5F3130545FDEF00903D2285EF106F
:1015F00000479147630DF500D1653745010013069B
:10160000D0599385C5F31305C5F5EF00703B7D55A3
:10161000D9C4EFF050244C4C83A7C188C58D4CCC65
:10162000AA8999C3228582974848130A44018144B4
:10163000630CAA028347C50213F7170031C3145580
:10164000584C03290500758F639EE600918B99C75E
:101650001C5513C7F7FF5C4CF98F5CCC3115EF10AC
:10166000F03F8544631C2A014E85EFF0901F014531
:101670009DC42AC6EF10C05B324515A04A855DBFE8
:1016800013F7270009CB1855544C03290500758F13
:1016900071DB18D565BF4E85EFF0B01C595541017F
:1016A0006FE0DFD5EFE25FD241112A8A2E84B28447
:1016B00036C6BA8AEFF0301AAA89EF10F00B05E5AA
:1016C0005169374501009305C9F41305C518EF00AA
:1016D0001021379501001306A0619305C9F4130585
:1016E0004565EF00F02DEFF010172A8BF12205C5AC
:1016F0005169374501009305C9F41305C5E1EF00B1
:10170000101E379501001306A0619305C9F4130557
:101710004565EF00F02A5A85EFF0B0144E85EFF0E2
:101720005014631D0A00D165374501001306D061CE
:101730009385C5F4130545FDEF0090285285EF1001
:1017400000329147630DF500D1653745010013065E
:10175000E0619385C5F41305C5F5EF0070267D554E
:1017600051C4EF10700183A7418923280502AA897B
:1017700099C352858297EFF0100E93F714002A89CF
:10178000B1C78327CA01E18F6399870463870A0081
:101790008327CA01E18F23A0FA008327CA0123808F
:1017A0009904918833F7870023AEE90291C413446A
:1017B000F4FF7D8C232E8A00EFF0B00A83A7018905
:1017C00099C35285829703A509030DA093F72400BE
:1017D0008DC38327CA01E18FD5FBB2479DE7F95737
:1017E0004A8523A8F902EFF0D007795541016FE04F
:1017F000FFC0D165379501001306D0639385C5F40A
:1018000013054565EF00D01BC9BF23AE89022380B5
:10181000990403469A00CE8513054A01EFF0EFC004
:10182000B247635CF0001384C904700081452285CF
:10183000EF1050672285EF1030524A85EFF07002AA
:10184000EF10003F03A5090355F1EFF0D000E38549
:101850000AF683A7C90323A0FA00B9BFEFE27FB855
:101860004111EFF0407F138741851C23850793F7D3
:10187000F70F1CA383A7C18481C72AC6829732456C
:10188000EFF0207E41016FE01FB8EFE29FB54111FC
:10189000EFF0607C83A7018581C72AC68297324515
:1018A000138741851C23FD1793F7F70F1CA3EFF057
:1018B000407B41016FE03FB5EFE2BFB2EFF0A079AE
:1018C00003C44185EFF0E0791374F40F22856FE0D3
:1018D0009FB3937808044111639E0800D1689388F0
:1018E000083A93730801638B03001378E8FF930EA3
:1018F000000219A8D1689388482CE5B71373180023
:10190000930E0003E30503FE13732800630E030622
:10191000635806023306C0409302D0020A8E814FFC
:10192000294F6395E6073373D6023356D6024693A2
:1019300003430300850F050EA30F6EFE7DF20DA07D
:10194000137348009302B002631703009372880078
:10195000B3325000960279F2930600035480854F0B
:10196000FE8663D3FF00BE8613781801158F6313BC
:101970000804638502006353E0007D172A86B308DC
:10198000E5001303000221A88142F1B71373F600AA
:10199000118271BF6374B6002300660005063388A8
:1019A000C840E34900FF3A866353070001467D17AC
:1019B0003295118F638802006374B50023005500CF
:1019C0007D17050563870302AA96130800031DA867
:1019D0006374B6002300D60105063388C840E34986
:1019E00000FF3A866353070001467D173295118F39
:1019F000E1BF2A86B308E500CDB76374B5002300C4
:101A0000050105053386A640E3C9CFFEFD56FD1F3F
:101A10006383DF0099E7AA873306E5001308000215
:101A200031A86376B5003306F101102210A1050537
:101A3000F9BF63F4B700238007018507B306F640BA
:101A4000E349D0FE6353070001473A954101828084
:101A5000EFE23F992A84EFF03FE609C523AC818489
:101A60006FE07F9AEF10405175D900D9D5BFEFE2F2
:101A70005F97EFF07FE409C5138581856FE0BF981C
:101A8000EF10804F75D913050503CDBF0D47AA8709
:101A90006376C7009377350091C7AA873E96639710
:101AA000C706828093F7F50F13978700D98F139796
:101AB00007015D8FB308C500AA87BD463388F8408B
:101AC00063EB060393574600C156B386D7029207CD
:101AD000AA970D4836963383C700BE86B308D34015
:101AE0006362180313572600F156B306D7020A079C
:101AF000BA97369665B798C3D8C398C7C10723AEBF
:101B0000E7FE6DBF910623AEE6FEC9BF8507A38F32
:101B1000B7FE71B73D47AA876377C700B367B500C3
:101B20008D8BA5CBAA8701476315C708828003A8C0
:101B30000700C1074107232807FF03A847FF232AFF
:101B400007FF03A887FF232C07FF03A8C7FF232E47
:101B500007FF3388F840E3EC06FD935646001397E1
:101B60004600B307E500BA954157B386E602014740
:101B700036968D463308E64063C3060313572600A6
:101B800093162700B697B695F1563307D7023A96C3
:101B900059BFAE872A87B388C500BD465DBF33886D
:101BA000E500832808003388E70011072320180187
:101BB000D1B7B386E50003880600B386E7000507C2
:101BC0002380060195B763F2A504B386C500637E42
:101BD000D5029345F6FF8147FD176393F500828098
:101BE0003387F600030807003387C7002A972300CE
:101BF0000701DDB73387F500830607003307F500DB
:101C0000850714A3E318F6FE82808147E5BF0147EC
:101C10006314E600814711A8B307E500B386E50029
:101C20009C2394220507958FE5D73E8582800DC6BB
:101C3000AA8785050387F5FF85079306F6FFA38F1F
:101C4000E7FE09EB3E9685076393C7008280A38F6A
:101C500007FED5BF3686F1FE828001476314E60099
:101C6000814739A8B307E50083860700B387E500FD
:101C70009C23B387F640E207E18799E30507F9FE65
:101C80003E858280830705000387050099C363852D
:101C9000E7003385E740828005058505E5B7AA871B
:101CA0000387070001E73385A74082808507CDBF02
:101CB000EFE28FF12A842E85AE89D5371DC12A899E
:101CC0002285F13FAA84330AA40033049A4063D4E6
:101CD0002401014439A04A86CE852285FD14053FA2
:101CE0006DF522856FE08FF1EFE2AFEF41112AC66B
:101CF0007D3713061500328532C46D252A8409C547
:101D00002246B245EFF01FE1228541016FE0AFEFBF
:101D1000EFE2AFEAAE8BB30A75012A8BB68563F5A5
:101D2000AA00934BF5FFFD5AC164374901005A855B
:101D30009309B002130A0002FD141309893931A86E
:101D4000130750026388E702637355011CA19307D0
:101D500015003284130614003E8583070600EDF358
:101D600063860B006376552F23000500330565411C
:101D70006FE02FE801481307D00293063002930862
:101D8000000331A0639E3701136848002286830751
:101D9000160013041600E397E7FE13680801FDB769
:101DA0006395470113688800D5B76395D70013681A
:101DB0000802E9BF6395170113681800C1BF1387B4
:101DC00007FDA54663E6E6040147A546A94839A0F4
:101DD0003307170305043E97130707FD8307040025
:101DE000138607FDE3F6C6FE030604009306E00231
:101DF000FD57631FD604830714002546930614007D
:101E0000938807FD6365160B8147A548294E3DA0C1
:101E10009306A0027D57E399D7FC9841130426004E
:101E20009105E35307FC3307E040136808016DBFD9
:101E3000B387C7038506B297938707FD038606001D
:101E4000130306FDE3F668FE63D30700814736847B
:101E50008306040013068006814813F3B6FF63155A
:101E6000C30093F8F60F05040306040093069006DA
:101E70006303D60663C5C60693068005630FD61AAC
:101E800063C3C604930750026303F61A63755501D2
:101E9000930750021CA10307040093071500630277
:101EA000071A63F3570118B19307250065B51306A8
:101EB000A0026397C7009C4193062400910569B76F
:101EC0003684814771B7930630066302D6089306BD
:101ED0004006E31DD6FA13682800A94699A0930688
:101EE00030076303D60C63C5C6029306F006630C85
:101EF000D61493060007E31BD6F8FD566315D700EA
:101F0000136818002147138C4500C146904115A85D
:101F100093065007E303D6FC13038007C146E3177B
:101F200066F61306C006138C4500E381C8FE13064F
:101F30008006E39DC8FC90419375280063970510C7
:101F4000658ED685EFF0FF98AA87E28521B51378D4
:101F5000080163150802BA879306000229A063737B
:101F6000550114A10505FD17E34BF0FE9307F7FF9C
:101F70006343E00005473387E74005079386450044
:101F8000637455019C411CA1930715002A97930582
:101F900000023306F7406344C000B68565BB63F3B7
:101FA00057018CA38507F5B790419388450011E24E
:101FB0004A8681466387E600B305D600838505001F
:101FC00091ED6355F00063D3D700BE861378080106
:101FD00063100802BA879305000201A88506D9BFDD
:101FE000637355010CA10505BA877D17E3CAF6FE98
:101FF0008147639DD700B307D5003E979305000244
:102000003306F74063C0C602C685A9B3B305F50021
:1020100063F855013308F600030808002380050122
:102020008507C1BF63F357018CA38507D1BF6373D5
:10203000550110A19307150031BB13680804C14670
:10204000CDB57D1401BBA146E9BD42064186D5BD93
:10205000A38F0AFE21BB397136D6741006CE3AD84A
:102060003EDA42DC46DE36C6EFF09FCAF24021611E
:102070008280EFE20FB7B2862E86FD55EFF05FC982
:102080006FE06FB8397132D4301006CE36D63AD8F8
:102090003EDA42DC46DE32C6E93FF2402161828010
:1020A00003A5C1858280EFE2CFB303A9C185EFE02C
:1020B000CFF16303A902AA8409CD1384C185084026
:1020C00019C1EFE0BF82930530042685EFE0EFF4FD
:1020D00004C04A856FE02FB30149E5BF82803971A2
:1020E00022CC2ED232D436D62A8654109305F0074D
:1020F0001385C1C13EDA36C606CE3AD842DC46DE8A
:10210000EFF01FC1AA8603A5C18501E91385C1C1EE
:10211000F137F2406244216182809307F007228602
:1021200063F4D7009306F0071386C1C18145EFE041
:102130001F89C5B7EFE2EFAA374501001305053146
:10214000793F374501001305C531513F374701003D
:1021500037450100130707349146014691451305A1
:10216000C534B53F374501001305C5368D3F6FE0D7
:102170008FA931C5D1661377F50F9386461C09C721
:10218000BA96882205058280C167938707F0E98F98
:1021900081CB21851377F50F36970823250582809B
:1021A000B707FF00E98F81CB41859377F50FB6978D
:1021B00088234505828061813695082165058280E6
:1021C000EFE22FA283A701864111A30701008DE34F
:1021D000B2862E86AA85374501001305852DEFF0BE
:1021E0001FF09C87E207E187EDDF41016FE0AFA1BF
:1021F0008297E5BFEFE2EF9E83A541873745010057
:102200001305C53EEFF0BFED83A5018837450100FA
:1022100013050540EFF0BFEC83A5018737450100AA
:1022200013054541EFF0BFEB6FE0EF9DEFE26F9BD1
:1022300003A781862A8413898186637DE500D165A1
:10224000374501001306100A9385453B13050546E3
:10225000EFF01FF703A7418693844186636DE40086
:10226000D165374501001306200A9385453B1305C8
:102270000548EFF0FFF43E2081CFD16537450100DE
:102280001306300A9385453B1305C54AEFF05FF30B
:10229000032709005C40BA976304F402B6238DE279
:1022A0009440638FF6009386C18690426313F600D4
:1022B00080C2D44354C0DC43B306E440BA9794C709
:1022C0001044B307C700630FF400B62381EE938672
:1022D000C1868C42639385009CC25440D4C35C4049
:1022E0003E9710C76FE02F92EFE20F8E1304350078
:1022F0002A89AE8993F4C5FFEFE0F0557198AA8A58
:10230000EFF08FDB05C5516A3745010093050A3CA4
:102310001305C5E1EFF0BFDC379501001306200D72
:1023200093050A3C13054565EFF09FE95685EFE0FC
:102330005053E14763FF9704938784FE63EB870460
:10234000B3878440938687FE23AAD1860967D11775
:1023500093848186130707EA5CC018C02324040015
:1023600080C03E9423A281864967130707EAB745D8
:10237000010018C05CC01CC4854605469385C5672E
:102380001385C1C9EFE09F91984023A6E1866FE0D5
:10239000EF86374501004E86CA8513054568EFF084
:1023A0001FD4F5B7EFE24F8219E1014949AA2A8407
:1023B000EFE0704A2A89EFF02FD005C5D164374588
:1023C00001009385443D1305C5E1EFF05FD13795DA
:1023D0000100130680119385443D13054565EFF018
:1023E0003FDE4A85EFE0F04703A741870D0471986F
:1023F00093844187E36B87FAB1476373F4003144F8
:10240000FD551385C1C9EFE07FA883A7C18683A5C9
:10241000818683A804004A853386B740B386884006
:102420001388C1866367D6001385C1C9EFE0DFB9A1
:10243000ADBFB384C500BA2003A3440063180712DC
:102440003307C340930F47FF63E28F12138F018856
:10245000938E0187130E84011309C40083260F0095
:1024600083A30E00938901889382018763ECCF0DCB
:10247000330E2601896E3387C501938E0EEA10C78D
:102480002320D7012322670023A2C4015843054615
:10249000B2A0B108630517012E972324C701138743
:1024A000C600229723A0E90063F4E30023A0E20022
:1024B0000967130707EA9AA093894186639A9700F0
:1024C00083A609000147B22341EE19C32320F80077
:1024D0001385C1C9EFE05FAF83A70900269963FDAB
:1024E0002701D16537450100130660189385453DE6
:1024F0001305C55BEFF0DFCC1389C4009377390077
:1025000081CFD16537450100130670189385453D8D
:1025100013050560EFF0DFCA8D8881CCD1653745A2
:102520000100130680189385453D1305C564EFF03F
:102530003FC983A7C18781C7A2854A8582974A85FB
:102540006FD0DFEB05463697B2A02320EF00E3F112
:10255000E3F623A0EE00A9BFDC430547AE97A5B77D
:10256000E39CF6FE35D72320D8009DB71A865DBDC3
:10257000EFD23FE73306B5024111328532C6EFF0A4
:102580007FE22A8409C532468145EFF02FD02285AB
:1025900041016FD05FE763000516EFD2FFE22A84A6
:1025A000EFE0702B2A89EFF02FB11DC137450100F4
:1025B000938501821305C5E1EFF07FB237950100E5
:1025C0001306F0229385018213054565EFF05FBF86
:1025D0004A85EFE010299377340099CB3745010005
:1025E00013061023938501821305C54BEFF05FBDE1
:1025F00083A78186138981866366F40083A7418659
:10260000636CF40037450100130630239385018283
:102610001305C54EEFF0DFBA83A7818799C32285E2
:102620008297832709006366F40C83A7418663724F
:10263000F40CFD551385C1C9EFE05F85835764FF36
:10264000930444FF81CB035744FF8967938707EACC
:102650006301F7063745010013058554EFF03FA8E5
:10266000835644FF035664FF37450100A6851305D2
:102670004556EFF0DFA6835764FF99EB374501001D
:10268000130610259385018213054559EFF05FB3BA
:10269000035744FF8967938707EA630CF7003745C0
:1026A000010013062025938501821305055AEFF0DA
:1026B0003FB18967938707EA231AF4FE9387C1869F
:1026C0009843231B04FE63F3E40084C3138701884B
:1026D0001C43832684FF2685958F83260900B386B5
:1026E000D440B6971CC3EFF07FB41385C1C9EFE0A7
:1026F000BF8D6FD0BFD08280EFD21FCDAA842E8431
:10270000EFE07015AA89EFF02F9B05C55169374599
:1027100001009305093E1305C5E1EFF05F9C379575
:1027200001001306C01A9305093E13054565EFF035
:102730003FA94E85EFE0F012138A418783270A00F4
:102740000D047198014963EC870009E42685EFF0D8
:102750009FE431A081E82285EFF0DFC42A894A8511
:102760006FD0DFC9FD551385C1C9EFE02FF283A7F4
:102770008186CA8A63E6F40003A7418663E8E40021
:102780001385C1C9EFE05F842689D1BF83A584FF8B
:10279000138744FF1D8F138545FFB309E540E3010F
:1027A00034FF9306840163F53605138601881442CD
:1027B0003A94A296898E310414C2896633858700C3
:1027C000938606EA14C14CC118C523AC84FE0327C6
:1027D0000A00544131076384E600B69780C79387A7
:1027E000C18698436373E50088C3EFF03FA449BFF7
:1027F0001385C1C9EFE04FFD2285EFF0BFBA2A89EA
:1028000039DD228663F389004E86A6854A85EFF07E
:102810006FB02DBFB707002093860700014793874D
:10282000070021468C426396A500131547003E958C
:1028300082800507C106E317C7FE01458280EFD2FB
:10284000DFB72A842E85AE89328AEFF0BFFC2A8951
:1028500001EDD16537450100130680139385056CA2
:102860001305C578EFF0DF95652983244900930AA5
:102870004900516BB74B0100639054057D2993E9E2
:1028800009F8230434012146D2852285EFF02FBABE
:1028900083A7418899C322858297EFE0C07B0327F5
:1028A00049009307C4005CC358C42322F90004C83C
:1028B000EFE0207B6FD0FFB3938744FF99CB639AFF
:1028C00087001306801493050B6C13854B7AEFF089
:1028D0003F8F844055B7EFD2DFB02A8401EDD16538
:1028E00037450100130650179385056D130585774D
:1028F000EFF01F8D83A7818899C3228582972304D7
:102900000400EFE04075544418489307C400D8C24F
:1029100014C31CC85CC4EFE0C0746FD0DFAEEFD24C
:10292000BFAA2A89AE89EFE00073AA84EFE0DFF83E
:1029300005C55164374501009305446E1305C5E193
:10294000EFF0EFF937950100130680199305446EF7
:1029500013054565EFF0DF862685EFE080704A8538
:10296000EFF05FEBAA8401EDD16537450100130656
:10297000C0199385456E1305C578EFF07F84C84470
:10298000EFF05FA22A841DCDD0448145EFF00F9077
:10299000214623042401A3040400CE852285EFF000
:1029A0000FA983A7418899C322858297EFE0A06A87
:1029B000D8409307C40091045CC358C49CC004C8A9
:1029C000EFE0206A22856FD07FA3EFD29FA12A84F7
:1029D00001EDD165374501001306601D9385856FB4
:1029E00013058577EFF0CFFD8307840063DD0700D3
:1029F000D165374501001306701D9385856F13055A
:102A0000C574EFF0EFFB83A7818899C32285829775
:102A100023040400EFE02064544418489307C400E2
:102A2000D8C214C31CC85CC4EFE0A0632285EFF0D9
:102A30009FB66FD05F9DEFD2DF9A2A8401EDD165FA
:102A4000374501001306801F9385C57013058577F0
:102A5000EFF00FF7030584007D816FD0DF9AEFD28E
:102A60005F982A8401EDD165374501001306B02037
:102A70009385857213058577EFF08FF4082413751D
:102A8000F5076FD05F98EFD23F94AA8941112E8548
:102A9000EFF05FD8638909042A84014535C0EFE06F
:102AA000805B2A89EFE05FE105C5D164374501000D
:102AB0009385C4731305C5E1EFF06FE2379501000C
:102AC000130680229385C47313054565EFF04FEF1D
:102AD0004A85EFE00059A9240329440093044400E7
:102AE00063159900992C014521A8130449FF21463B
:102AF000CE852285EFF06F9619E522C63D2C324532
:102B000041016FD0BF8F03290900D9BF2392018AE9
:102B10009387C1CB13870710DCC39CC3A107E39D38
:102B2000E7FE23A6018A8280EFD2BF8B2A8401EDC3
:102B3000D165374501001306702C9385457B13053D
:102B4000C57EEFF0EFE7EFE0005103A7C1898347AF
:102B50004403E19B631A870093E73700230AF402DA
:102B6000EFE020506FD03F8A93E71700230AF4026A
:102B70008347540393064401139737009387C1CBCF
:102B8000BA97D84314C318CCD4C35CC89387C18AFE
:102B90009443185C558F98C3E1B7EFD29F842A8481
:102BA00001EDD16537450100130680329385057D1F
:102BB0001305C57EEFF0CFE0EFE0E049184C544834
:102BC00093074401D8C214C35CC81CCC8347540388
:102BD000139737009387C1CBBA979843631AF700CE
:102BE0001387C18A1C5C144393C7F7FFF58F1CC37E
:102BF000EFE020476FD03F81EFD2AFFE03A5C18A3F
:102C0000EFF02FD77D15931735001385C1CB3E9577
:102C100000411305C4FE23AEA188EFF01FF88D47D5
:102C20002300F40213058400EFD08FDD6FD0AFFDD9
:102C3000EFD28FF94111EFE000428397418AAA89D0
:102C4000DDE703A5C18A45C5EFF0AFD283A4C189F2
:102C50007D15131735009387C1CBBA97804383C77F
:102C600044030D47311493F677001389C189014A53
:102C70006391E60203C754036361A708054A63171B
:102C8000A70013F7870019E32684014ADD9B238AF6
:102C9000F402638A8406238CA18883A7018A2320F7
:102CA000890081C7A2852685829763050A0026854B
:102CB000EFF09FE72285EFF05FEE8347440313892F
:102CC000C4019305C401E19B93E73700230AF40292
:102CD00083C7418593F7F70F9DE383A7818A89C74F
:102CE00026852EC68297B2454A85EFD02FD34E85D2
:102CF000EFE0203741016FD06FF0268441BF4A8555
:102D0000EFE08036EDB72685EFF03FE903270900B5
:102D100083474703E19B93E73700230AF702C1BFCC
:102D2000EFD22FECEFE020339387418A9A230507F7
:102D30009AA3EFE000336FD00FEDEFD28FEAEFE010
:102D400080311387418A1E23FD17C207C1871EA346
:102D5000634DF00023100700EFE0A03083A7C18986
:102D600099C3EFF0FFEC6FD00FEAEFE0802FE5BFE3
:102D7000EFD22FE72A84EFE0002E3C5CAA8499C3AF
:102D8000228582972685EFE0C02D6FD0CFE7EFD266
:102D90004FE503A4C189EFE0002CAA842285EFF05F
:102DA0003FFD2285EFF07FDF9147230AF4021305F0
:102DB000C404EF00A06E2285EFF0FFC78547631CB7
:102DC000F5002285EFF03FB1EFF09FE62685EFE0BA
:102DD00040296FD04FE32285EFD0DFCEF5B7EFD299
:102DE0004FE0BE84930745012A841CCD5CC90CD1F9
:102DF00050D114D558D53A8693053002368542898C
:102E0000EFE0DFC85C5410544C500850F117B7364F
:102E100000003E969386E6D8EFE0A01E48CCFD4722
:102E200063FD9700D565375501001306E00A9385C9
:102E300005801305C58BEFF0AFB83736000081472A
:102E4000230B9402A30A9402232C040223222405B8
:102E50002324240523280402230A0402232C040625
:102E6000232E04060147A286130646E8A285130511
:102E7000C404E12B83A7018B99C322858297014566
:102E80006FD06FD8EFD2EFD52A8401EDD5653745E5
:102E90000100130620379385858A1305C57EEFF060
:102EA0002FB28347440309479D8B638DE700D565A7
:102EB00037550100130630379385858A1305859BA6
:102EC000EFF00FB02285EFF09FB98547630DF50055
:102ED000D56537550100130640379385858A13055C
:102EE000459FEFF0EFADEFE000175448184CF9574D
:102EF0001CD8D8C29307440114C31CCC5CC8AA8454
:102F00002285EFF07FC22685EFE0A015EFF05FD2BB
:102F10006FD06FCFEFD26FCA2A84AE8B3289B68959
:102F2000BA843E8AC28A468B01EDD56537450100D9
:102F30001306F010938505811305C57EEFF04FA8A9
:102F400081ECD56537550100130600119385058185
:102F50001305C594EFF0CFA65E8622858545EFF078
:102F60001F8E5A88D6875287A6864E86CA852285A6
:102F7000EFF0FFE66FD0EFC703A5C1898280EFD2E3
:102F80004FC62A8401EDD565374501001306E016CA
:102F9000938545831305C57EEFF08FA22285EFF060
:102FA0001FAC8547630DF500D56537550100130645
:102FB000F016938545831305459FEFF06FA022859A
:102FC000EFF07FA701EDD565375501001306001717
:102FD000938545831305C591EFF08F9E8347440386
:102FE00011479D8B6388E70281C72285EFF0FFBA06
:102FF0002285EFF0FFD71305C4044D219147230A22
:10300000F4022285EFF03FA385476318F50022857F
:10301000EFF07F8C01456FD00FBFEFE0C003AA84B3
:103020002285EFD03FAA2685EFE0A003E5B7EFD2D7
:10303000AFB941112E89AA85054532C6B684BA8931
:103040003E8AEFF0DF8D2A8411C92685EFF08FB517
:10305000324609E92285EFF05F970144228541015C
:103060006FD0CFB9AA865288CE872687CA85228597
:10307000EFF0FFD6E5B7EFD2CFB62A8401EDD565E4
:10308000374501001306501D938585841305C57EC1
:10309000EFF00F932285EFF09F9C8547630DF500BD
:1030A000D565375501001306601D9385858413058A
:1030B000459FEFF0EF902285EFF0FF9701CDD565AA
:1030C000375501001306701D938585841305058E01
:1030D000EFF00F8F8347440311479D8B6388E7020E
:1030E00081C72285EFF07FAB2285EFF07FC8130503
:1030F000C4046D26EFD030769147AA84230AF402E7
:103100002285EFD03F9C2685EFD0B07501456FD06A
:103110008FAFEFD20FAD2A8401EDD56537450100A1
:1031200013064031938505881305C57EEFF04F895E
:103130002285EFF0DF928547630DF500D5653755A1
:10314000010013065031938505881305459FEFF064
:103150002F878347440305477D5513F97700958BE7
:10316000639EE704EFD0306F8D47AA846311F902A4
:1031700083A7C189630DF400D56537550100130697
:103180006032938505881305C599EFF06F8322851A
:10319000EFF0BFA0834744031305C404E19B93E70A
:1031A0002700230AF40279212685EFD0906B83A7AC
:1031B000818B014581C72285829701456FD0AFA4DD
:1031C000EFD22FA203A4C18941112AC601ECD56513
:1031D000374501001306D0219385C5851305C57EAB
:1031E000EFE01FFE2285EFF09F878547630DF50016
:1031F000D565375501001306E0219385C585130574
:10320000459FEFE0FFFBEFD010652A892285EFF0A4
:103210005FF09304C40470008145268561212685F2
:10322000252E4A85EFD0F063EFF09FA01858F9578C
:103230006314F70023280402014541016FD0AF9CBD
:10324000EFD22F9AEFF0DFF76FD0EF9BEFD26F99AD
:10325000EFD02FBDEFF0DFF66FD0EF9AEFD26F987F
:103260002A8401EDD5653745010013064034938566
:1032700045891305C57EEFE0BFF42285EFF02FFEF0
:103280008547630DF500D5653755010013065034A9
:10329000938545891305459FEFE09FF283474403DB
:1032A00009477D559D8B639DE702EFD0D05A544866
:1032B000184C93074401AA84D8C214C31CCC5CC820
:1032C0001305C404852E2285EFF01F862685EFD0D6
:1032D000505983A7418B014581C7228582970145BB
:1032E0006FD06F92EFD2EF8F2A8401EDD56537450D
:1032F000010013061014938505821305C57EEFE0C7
:103300003FEC834744039D8B81CFD5653755010042
:10331000130620149385058213054596EFE05FEAB6
:103320002285EFF0CFF38547630DF500D56537555E
:10333000010013063014938505821305459FEFE0C5
:103340003FE80347640385472285B397E7001CDC09
:103350008947230AF402A30AE402EFF03FF083A7AF
:10336000C18999C3EFF0DF8C01456FD0CF89EFD2CF
:10337000AF8541112A84AE84B28901EDD565374508
:1033800001001306202A9385C5861305C57EEFE04C
:103390003FE32285EFF0AFEC8547630DF500D5657F
:1033A000375501001306302A9385C5861305459FBE
:1033B000EFE01FE105496380240789476387F40034
:1033C000B9C4014541016FD06F83EFD0D048834429
:1033D00044032A8A9D88639324032285EFF0EFFB40
:1033E00083C709002285B394F400A30AF40204DC25
:1033F000EFF08FF35285EFD0D046E1B783C70900D5
:103400003319F900A30AF402232C2403E5B722851B
:10341000EFF05FED45BF2285EFF0EFE1631A950015
:103420002285EFF0DFB52AC6EFF09F80324559BF05
:103430002285EFF05FC4C5BF5449184D930745017D
:10344000D8C214C31CCD5CC98280EFC2FFF72A84A6
:10345000AE8A328AB6893A89BE8401EDD565375580
:1034600001001306900C9385C5A4130585B0EFE009
:103470003FD55686A9452285EFF06FBC93074401DE
:10348000F99804B4232E4401232034032324040296
:10349000232224031CCC5CC86FC05FF6EFC27FF40C
:1034A0002A8401EDD565375501001306E00D93859B
:1034B000C5A5130585B0EFE0BFD02285EFF02FDA68
:1034C000A947630DF500D565375501001306F00DCA
:1034D0009385C5A5130505AAEFE09FCE2285EFF0E1
:1034E0008FD501EDD565375501001306000E938584
:1034F000C5A51305C5ADEFE0BFCCEFD0D035AA848C
:103500002285EFF07FF31C342685F99B1CB4EFD0A5
:1035100050352285EFF02FBC01456FC0DFEEEFC2C2
:103520005FEC41112E84AA85294532C636C43AC2C1
:10353000EFF0EFBE19CD12473246A2469307450180
:10354000799B18B540CD10D12324050254D11CCD50
:103550005CC941016FC03FEBEFC2BFE82A8401EDB7
:10356000D56537550100130650149385C5A613057C
:1035700085B0EFE0FFC42285EFF06FCEA947630D61
:10358000F500D56537550100130660149385C5A66F
:10359000130505AAEFE0DFC2EFD0F02BAA84228545
:1035A000EFF09FE91C34F99B1CB483A7018999C3F0
:1035B000228582975850B707008093C7E7FF63FDC5
:1035C000E700D56537550100130650159385C5A64C
:1035D0001305C5B1EFE0DFBEEFC0DFFF5C5037067B
:1035E00000801346E6FF3E951387818C4C4308D438
:1035F0009387818C98436397F5029386C18B9042A1
:103600002685050690C29306440154C358C894C346
:103610001CCC1C3493E717001CB4EFD09024014558
:103620006FC07FDE544B6305D500898EE377D6FCEF
:10363000BA87C9B7EFC2FFDA2A8401EDD5653755DD
:1036400001001306B01B9385C5A7130585B0EFE0F5
:103650003FB72285EFF0AFC0A947630DF500D565F0
:10366000375501001306C01B9385C5A7130505AA8E
:10367000EFE01FB51C347D55858B9DC383A7C188A2
:1036800099C322858297EFD0101DAA842285EFF07E
:10369000BFDA1C342685F99B1CB4EFD0901C014581
:1036A0006FC07FD6EFC2FFD32A84AE84328901ED8A
:1036B000D565375501001306F01D9385C5A8130580
:1036C00085B0EFE0FFAF2285EFF06FB9A947630D3A
:1036D000F500D565375501001306001E9385C5A872
:1036E000130505AAEFE0DFADEFD0F016914763E0D8
:1036F0009702D567938787A38A04BE949C408287EC
:103700005C502320F90021A0832709005CD0EFD072
:10371000501501456FC03FCF1C34F59B1CB4C5BF8D
:103720001C3493E72700DDBF1C34858B99C3854784
:10373000C9BF23200900E1BFEFC23FC841111309EF
:1037400081004AC64AC4EFC0FFE8AA8CEFD0B0108F
:10375000370A0080AA8A9384818C134AEAFF0D4CB1
:103760008040631894005685EFD0B00F41016FC0C0
:103770005FC848489309C4FE3385AC40E365AAFEA0
:1037800083A7018C99C34E8582974E85EFF0DFCADF
:10379000834754FF13F7270001E7F99BA30AF4FEC0
:1037A000A2474844C0C31CC01C4422C42322240195
:1037B0008297EFC03FE283A7418CAA8C99C34E85C4
:1037C0008297A247E38E27F918405C405CC398C3F8
:1037D000834754FF40C000C013F73700E31287F956
:1037E000F99BA30AF4FE4E85EFF01FD795BF938790
:1037F000818CDCC39CC382808280EFC2FFBC1971C4
:10380000AE89D165C1472A89130600039385C5B4E3
:1038100088083EC8A3070100EFE0205B03A4C903AA
:10382000630509004A85EFE01FD7630704141C44B1
:10383000638407145C44375501001305C5BB9C43E2
:1038400082972A89630A05120444014689459C40EF
:10385000094582972A84634E050E8947A308F10221
:10386000E9779387F7512319F1028327090121464C
:1038700081459C43281805699C43014AB14A3EDAB8
:10388000EFE0CFA081473ED2DC5009471306690024
:103890009305F9FF3AD01410414702D4228582974C
:1038A000DC5041471410130659009305F9FF228597
:1038B0008297414681458800EFE04F9DB746010061
:1038C00037960100938606341306C602C145880068
:1038D000EFE06FF8130901050D46CA858800EFE097
:1038E0000FB3050A25E5314681454808EFE00F9AF8
:1038F00083C60902230A0100814763C5D7069147A1
:1039000003A88401A30EF10093070040FC87181858
:10391000C147814631464C082285029803A8C4015C
:103920001C081818814605469305F1002285029867
:10393000634105028307F10089CF01CD85454E859E
:10394000EF10A036DC402285829711A81109E315FB
:103950005AF981454E85EF104035E35504FE096163
:103960006FC0DFA93387F9000347170285075008A6
:1039700052973E9618A251B77D54E1BFEFC27FA681
:103980001384018D1C40014995EF9384418D91472B
:10399000C14505459CC0EFE0BFBDC8C0B75401009C
:1039A0000DE5375501001305C5C6EFE04FF3375558
:1039B0000100130505C8EFE08FF2138504CAEFE09C
:1039C0000FF27D594A856FC01FA413060008814578
:1039D000138501DEEFE08F8BB7550100014693851B
:1039E00085CA1385C1DBEFD04FEE375501001305B3
:1039F00045CBEFE0CFEE37550100130585CCEFE066
:103A00000FEE138504CAEFE08FED85471CC05DBF44
:103A1000EFC23F9DFD551385C1DBEFD09F8701CDE0
:103A2000D5653795010013067016938505B7130504
:103A30004565EFE0EFF86FC01F9D03A7C18D9307A9
:103A4000F00263EBA7061148F9576368B806EFC2A6
:103A50005F99844288C4CCC490C815C38347A70229
:103A6000858B91CF5C5F81CF944791CA94436385E6
:103A7000A600DC436395A700D8C881470DA82A8417
:103A8000EF00901405E9375501001305C5C6EFE0B6
:103A90000FE537550100A285130545D4EFE02FE46B
:103AA00037550100130505CAEFE06FE3F5573E8572
:103AB0006FC07F95C8C8D1B7FD573E858280EFC2E1
:103AC000BF90EFF0FFF49387418D9843C8430144C2
:103AD0009384418D6346E4086316E402BD4763E3C3
:103AE000870213094400C14763D327014149931555
:103AF0002900EFE07FC00DCD9C4063CA2707C8C0F6
:103B000023A024019C406355F40203A944009319A7
:103B100024004E998327090081EFF1450545EFE028
:103B20003FA5DC402320A900CE979C4391E3804031
:103B30009C4063858704DC4013172400BA979C439C
:103B40001967130707A1C0C398C323AA070023ACB2
:103B500007001385C1DBEFD07F8B22856FC01F8AE2
:103B600093172400AA979C43D1DF0504A5B71397A8
:103B700027002A9723200700850741B77D54D1BF2E
:103B8000EFC23F862A8401EDD56537550100130643
:103B9000E011938505B4130505BDEFE06FE29305D1
:103BA00040040545EFE0DF9CAA8405E93755010094
:103BB000130585BDEFE0AFD23755010093054400F2
:103BC0001305C5BEEFE0AFD137550100130505CA97
:103BD000EFE0EFD07D556FC01F83B7350000228620
:103BE0009385A57FEF50F07B9305803E2685EF50AF
:103BF000707C0145CDB763460504EFC28FFE03A775
:103C0000418D2A849384418D0145635AE402DC404E
:103C10000A04A2979C4398439967938707A1630D71
:103C2000F700D5653755010013066015938505B675
:103C3000130545C2EFE0CFD8DC40A29788436FC0A0
:103C40008FFC0145828063400506EFC28FF903A710
:103C5000418D9384418D6356E5042A84EFF05FDB48
:103C60002285EFF05FF92A8901EDD565375501000E
:103C70001306E0239385C5B7130545D3EFE04FD472
:103C800013152400C04023200900232A09002A9488
:103C9000084023200400EFE01F901385C1DBEFD024
:103CA000EFF66FC04FF68280EFC2AFF341112EC620
:103CB00032C436C23AC0EFF01FF41DC1AA8748498A
:103CC000485D0845032845027D5563080800024702
:103CD00092462246B245884F029841016FC0AFF22A
:103CE0007D55E5BFEFC2EFEF41112EC632C4EFF0B4
:103CF0009FF015C15449AA877D55BA36058B09CB6B
:103D0000D85E1847184B09C72246B245884F02971C
:103D100041016FC04FEF7D55E5BFEFC28FEC011140
:103D20002ECE32CC36CA3AC83EC6EFF0DFEC15CD07
:103D3000032345012A887D558358A30293F8180070
:103D4000638208020325C30308458328C5017D5506
:103D5000638A0800B2474247D2466246F2450325CD
:103D60008801829805616FC00FEA7D55E5BFEFC2FB
:103D70004FE701112ECE32CC36CA3AC83EC6EFF01C
:103D80009FE715CD032345012A887D558358A3025B
:103D900093F81800638208020325C30308458328AB
:103DA00085017D55638A0800B2474247D246624684
:103DB000F24503258801829805616FC0CFE47D55E7
:103DC000E5BFEFC26FE00111AA842E89B289EFF03E
:103DD0001FCF635405007D55B5A02A84EFF0BFE1E5
:103DE0002ACE09E52285EFF01FE6F5B774084E8666
:103DF000CA852685EFF07FC4635705022AC637556A
:103E000001001305C5C6EFE08FADB245375501007F
:103E1000130585CFEFE0AFAC37550100130505CA98
:103E2000EFE0EFABC1B7F247DC4BDC5F9C479C4354
:103E3000DDD34E86CA8526858297E34505FAF2478B
:103E400088CFC84305616FC06FDBEFC28FD9AA84EA
:103E5000EFF07FDA7D5405C15C497D54DC5F9C47FF
:103E6000DC4391CB084D82973335A0003304A0404A
:103E70002685EFF05FDD22856FC0EFD8EFC26FD6E9
:103E800041112EC632C4EFF01FD719CD5849AA8769
:103E90007D55585F1847585B09C72246B245884F81
:103EA000029741016FC02FD67D55E5BFEFC26FD39A
:103EB0002A84085141112EC6EFF0FFD305C158499D
:103EC0007D553E37858B81CB5C5F9C479C5F81C76E
:103ED000B2452285829741016FC0EFD27D55E5BF83
:103EE000EFC28FCE03A4C18DAA892E8AB28A3689E9
:103EF00015CC8347A402858B95CB5C5C85CBDC47D6
:103F00009C478DC78297AA8419ED938601DE0147ED
:103F1000938701DE41468C428DED832609000E0712
:103F2000BA9794C3C0C326856FC04FCD05450D21F8
:103F30002A84FD546DD98347A502858BEDD75C5D3E
:103F4000FDD3DC479C47E5D3CA865686D2854E858D
:103F500055BF0507A106E310C7FCD565375501001D
:103F60001306C0479385C5B8130545C5EFE04FA5B7
:103F70005DBFEFC20FC7938601DE0147938701DE65
:103F800041468C42639CA5000E07BA97D84323A0F4
:103F9000070023A207001DE36FC0EFC60507A106B7
:103FA000E311C7FED56537550100130640499385D7
:103FB000C5B9130545C5EFE0AFA0F9BF5C5FE9DF08
:103FC000DC47DC47F1DB8297C1BFEFC28FC1EFF066
:103FD0005FFA6FC04FC3EFC2CFC0EFF07FF06FC08A
:103FE0008FC2EFC20FC041112EC632C436C23AC0D2
:103FF0001124024792462246B245EFF0FFCA410122
:104000006FC06FC0EFC2EFBD41112EC632C4DD22BA
:104010002246B245EFF01FCD41016FC0CFBEEFC2C7
:104020004FBC41112EC632C436C2E9229246224606
:10403000B24581470147EFF05FCE41016FC0AFBC91
:10404000EFC22FBA41112EC632C436C26522924643
:104050002246B24581470147EFF07FD141016FC051
:104060008FBAEFC20FB841112EC632C42A89EF6051
:10407000C0752246B245635705005155EFD05F9D8C
:10408000FD5481A032C62EC4AA84EF6030023246AD
:10409000A2452A844A85EFF0DFD22A8963470502C8
:1040A00085473EA023220400BD22894708C85CC87A
:1040B000232C0400232E0400232024032285EF60F8
:1040C0009004268541016FC00FB42285EF60B003D4
:1040D0002285EF60500355B7EFC2AFB0AA84192A0A
:1040E000635A0500130540F9EFD09F967D54228551
:1040F0006FC06FB12A842685EF60407BAA8419E1E6
:104100005D55DDB72285EFF05FD42A8411C5130514
:1041100040F9EFD0FF937D542685EF60C07E268561
:10412000EF60607EE9B7EFC2CFAB085141112EC6F8
:10413000EFF07FAC7D540DCD084D0144EF20A04B36
:10414000AA841DC5B24591C59C4181C7130585034D
:104150008297EFC05070BE3882383334800099C3E4
:1041600013642400DE3899C313644400EFC0706FF9
:10417000228541016FC02FA9EFC2AFA62A8401EDAD
:10418000D565375501001306C006938505D813057C
:1041900005BDEFE0EF82D5679387C7D95CDC0145A9
:1041A0006FC06FA6EFC2EFA3EFF05FD06FC0AFA5F7
:1041B000EFC22FA30851814701478146EFF03FBB73
:1041C0006FC06FA4EFC2EFA108518147014781463C
:1041D000EFF0BFB46FC02FA3EFC2AFA00851EFF054
:1041E000FFC96FC04FA2EFC2CF9F0851EFF0FFC5CC
:1041F0006FC06FA1EFC2EF9EEF60406B7D5409C9A5
:104200003A2185477D546313F7000051EF60A06F9A
:1042100022856FC04F9F5565130585DF8280EFC2F1
:104220004F9C85476309F500375501001305453656
:10423000EFD0FFEA1DA003A5018E19E53755010057
:104240001305C537F5B73A851C5999C3984F19E33B
:10425000184175FB9C4F89C7829701456FC0AF9A83
:10426000375501001305C53AE1B7EFC28F974111E9
:104270002A84AE84328901EDD565375501001306D5
:1042800030039385C5E1130505BDEFD07FF381ECC5
:10429000D56537650100130640039385C5E1130515
:1042A000859FEFD0FFF13E3423260400232804002D
:1042B00093F7A7E73EB4232A0400232C0400232EFF
:1042C0000400232A0402232C04022685EFD03F9DFC
:1042D000A14763FFA7022146A685480002C202C487
:1042E00023060100EFD0BF94375501001305C53FE9
:1042F000EFD0FFDE37550100130505415000A685BC
:10430000EFD0FFDD37550100130505CAEFD03FDDC3
:104310002146A68513054400EFD07F912320240574
:1043200023200400EFC030531387018E1C4399EB08
:1043300000C323AE818CEFC0D052014541016FC054
:104340008F8CBA87984375FF80C323200400E5B79C
:10435000EFC22F899384018E804001CC2A89EFC05F
:10436000904F804009C43E34B377F90091C7EFC045
:10437000504F22856FC02F890040EDB7EFC2CF8428
:104380009384018E804005CC2A89EFC0D04C8040B8
:10439000AA891D4A15C0930444002685EFD03F909A
:1043A00021466366AA002685EFD07F8F2A86CA85BC
:1043B0002685EFD09F8A19E54E85EFC0904A228569
:1043C0006FC0CF830040F9B7EFC2AF819384018EF5
:1043D000804021C42A89EFC010488040A28485E033
:1043E00001CC5C5CA1C3984715CFDC43639C2703D9
:1043F0008347A402858B9DC7EFC0B04639A8DC5C1B
:1044000085C3984711CF9C43639C270183C7A402AF
:10441000858B99C7EFC0F044268422856FB0BFFE1C
:10442000844075BF00406DBFEFB2BFFB2A8401ED31
:10443000D56537550100130670159385C5E2130540
:1044400005BDEFD0FFD75C5C88436FB0DFFB19C9B7
:104450001C5923AEA18CDC4F91C7EFB29FF8829715
:104460006FB07FFA8280EFB2DFF783A5C18D1306AC
:104470004004EFD0CFF919E51145EFF07FED19C1F8
:10448000EFF0FFFC6FB03FF8EFB2BFF52A84AE84C7
:1044900001EDD565375501001306101D938505E420
:1044A000130505BDEFD0DFD181ECD565375501008F
:1044B0001306201D938505E41305C55CEFD05FD07E
:1044C0001C5899C3984705EB375501001305C53FA4
:1044D000EFD0FFC037550100930544001305455D3B
:1044E000EFD0FFBF37550100130505CAEFD03FBF1E
:1044F0007D556FB05FF13E34A183858B91CF3755E9
:1045000001001305C53FEFD09FBD3755010093054E
:10451000440013054561E9B781460146A685228519
:104520000297C1BFEFB2FFEB2A84AE8401EDD565DF
:10453000375501001306F01E938545E5130505BDAB
:10454000EFD01FC881ECD565375501001306001F59
:10455000938545E51305C566EFD09FC61C5899C3E2
:10456000984705EB375501001305C53FEFD03FB71E
:10457000375501009305440013054567EFD03FB65A
:1045800037550100130505CAEFD07FB57D556FB0D3
:104590009FE73E34A183858B91CF375501001305EA
:1045A000C53FEFD0DFB33755010093054400130535
:1045B000C56BE9B781462686814522850297C1BF32
:1045C000EFB23FE22A84AE8401EDD5653755010094
:1045D0001306D020938585E6130505BDEFD05FBE99
:1045E00081ECD565375501001306E020938585E6FB
:1045F00013050552EFD0DFBC1C5899C3984705EB53
:10460000375501001305C53FEFD07FAD3755010089
:104610009305440013054552EFD07FAC3755010098
:10462000130505CAEFD0BFAB7D556FB0DFDD3E345B
:10463000A183858B91CF375501001305C53FEFD07E
:104640001FAA37550100930544001305C556E9B765
:10465000A6860146814522850297C1BFEFB2DFD60B
:10466000854701116313F52203A4018E59C0375900
:104670000100B76901001309C915938909D3379A55
:104680000100B75A010083A7C18D13064400CA86F2
:1046900063838700CE8637550100A1451305851930
:1046A000EFD0FFA34E34375501001305C51BEFD0E3
:1046B0001FA3834704021947639EE704375501008F
:1046C0001305851CEFD0BFA18144375B01008347F0
:1046D000040263E7F402375501001305851DEFD08E
:1046E0001FA03E34858BBDE7375501001305451FDC
:1046F000B5A03755010013058516EFD05F9E9DA22A
:10470000B307940083C5170213050B1D8504EFD072
:104710001F9D75BF2147E390E7FC37550100130546
:10472000051EEFD0DF9B8144254B83470402E3F451
:10473000F4FA33079400834517026367BB00FD1743
:1047400013858A1E639497001305CAB1EFD03F9971
:104750008504E1BF375501001305051FEFD03F98D1
:104760003E34918B63840710375501001305C51F34
:10477000EFD0FF963E3493F70708638E070E375548
:10478000010013054521EFD09F953E3493F70710A4
:104790006388070E3755010013054523EFD03F947A
:1047A0003E34A18B99C73755010013054525EFD03D
:1047B0001F933E34898B99C7375501001305C525D2
:1047C000EFD0FF913E3493F7070299C737550100A8
:1047D00013058526EFD0BF90B79401001385447967
:1047E000EFD0FF8F1305C400EF00700EAA85375578
:1047F000010013050527EFD09F8E13054401EF003C
:10480000100DAA853755010013050528EFD03F8DFF
:1048100013050401EF00B00BAA85375501001305FD
:104820000529EFD0DF8B13058401EF00500A375BB9
:1048300001002A86814513050B2AEFD05F8A1305F4
:10484000C401EF00D0082A86854513050B2AEFD056
:104850001F891C4089C713854479EFD05F880040C9
:10486000E31304E2014505616FB05FB937550100FC
:1048700013058520F5BD375501001305452221B7E5
:10488000375501001305452411BF95476311F50AFB
:104890002E84CC41375501001305452BEFD03F84C2
:1048A0000C44375501001305452CEFD05F834C4471
:1048B000375501001305452DEFD07F820C48375541
:1048C00001001305452EEFD09F814C4083298400C1
:1048D0000329C4002E8504482EC6EFF03FAA2A847F
:1048E000B24501E9375501001305452FEFD02FFFE1
:1048F00095BF638A09006C084E85712B09C56C0849
:104900002285EFF07FB8630A09006C084A856123AD
:1049100009C56C082285EFF0BFCAA9D46C082685AA
:104920009D2B29D16C082285EFF0DFBF25BF3755BD
:1049300001001305C531D1B3EFB2BFAA2A84AE84FA
:10494000328901EDD565375501001306B0229385F4
:1049500085E7130505BDEFD0BF86631D0900D5654A
:10496000375501001306C022938585E71305854856
:10497000EFD01F85854763FA97023755010013056D
:10498000C53FEFD0CFF53755010009469385140098
:1049900013054549EFD0AFF437550100130505CA9B
:1049A000EFD0EFF37D556FB01FA61C5899C3DC47BD
:1049B00085E3375501001305C53FEFD04FF237555A
:1049C0000100930544001305854DEFD04FF1E9B781
:1049D0004A86A68522858297F9B7EFB2FF9E4111DC
:1049E0002A84AE843289EFF07F9919E937550100A6
:1049F000A2851305452FEFD08FEE41016FB01FA0A8
:104A0000AA896C004A8541297000A6854E85EFF081
:104A1000BFF265F537550100CA862686A2851305C3
:104A20000545EFD0CFEBD1BFEFB21F9A8547631D8D
:104A3000F50603A4018EB754010037690100938481
:104A4000C415130909D3B75A0100B7590100379BA0
:104A5000010001E401456FB07F9A83A7C18D130661
:104A60004400A6866303F400CA86A14513858A190B
:104A7000EFD0EFE613058401992D2A868145138531
:104A8000092AEFD0CFE51305C40191252A86854573
:104A90001385092AEFD0AFE41C4089C713054B7971
:104AA000EFD0EFE3004075B78D472E846318F50013
:104AB000484090458145EFF05FF269BF9147631B25
:104AC000F5008845C441EFC030219375F50F50447F
:104AD0002685D5B7375501001305C511EFD02FE056
:104AE0007D5595BFEFB2FF8F2A84AE8481EDD565E9
:104AF0003755010013064026938505E91305C55C6B
:104B0000EFD00FEC0DC49C4058446302F7025CC424
:104B10003E3413F7170019C78983858B81C7228517
:104B2000EFF00F861C5C81C78145228582976FB0AC
:104B30009F8DEFB21F8B2A84AE8481EDD5653755EA
:104B40000100130630289385C5EA1305C566EFD02A
:104B50002FE71DC49C4018486304F7021CC83E346C
:104B600013F7170009CB8983858B91C75C4481C7F4
:104B70002285EFF0EF801C5C81C7854522858297F6
:104B80006FB07F88EFB2FF852A84AE8481EDD56552
:104B9000375501001306302A9385C5EC13050552DD
:104BA000EFD00FE21DC49C4058486304F7025CC874
:104BB0003E3413F7170009CB8983858B91C75C447A
:104BC00081C72285EFE0DFFB1C5C81C78945228518
:104BD00082976FB05F83EFB2DF80AA842E84328920
:104BE00001EED565375501001306602C938545EE1F
:104BF00013058548EFD0CFDC8DC483270900984C7E
:104C00006301F702D84C638EE7000547636B8700AA
:104C100011040A0426941CC49C5C81C78D4526851A
:104C200082976FB04FFE05CDEFB2AFFB3E352A84C1
:104C300013F71700630EB700AE8489CD93E7170012
:104C40003EB55C5891C793B51400910522858297B3
:104C50006FB06FFBF99B3EB5EFF0FF80DDB7828050
:104C600021C5EFB20FF83E352A8413D72700058BF4
:104C70006304B702AE849DC193E747003EB5858BC0
:104C800089C75C4599C3EFE0BFEF5C5891C793B506
:104C900014009905228582976FB0EFF693F7B7F766
:104CA0003EB5EFF04FFCD5B7828015C93E3513D71E
:104CB0007700058B6305B70291CD93E707083EB5F2
:104CC0005C5991CFEFB2EFF193B51500A105829732
:104CD0006FB06FF393F7F7F7C207C183CDB7828048
:104CE00015C93E3513D78700058B6305B70291CDF3
:104CF00093E707103EB55C5991CFEFB28FEE93B5B5
:104D00001500A90582976FB00FF093F7F7EFC20770
:104D1000C183CDB78280EFB2CFE901112A8AAE8B71
:104D2000930A000211C2B28A03A4C18D01CC1C589F
:104D300091CBDC4B81CB3E3413F7170001C789833D
:104D4000858BA9EB1145EFF0AFE02A8419E93755BF
:104D50000100130585FDEFD08FB87D5505616FB05B
:104D60000FE91C5999C3DC4B91EB375501009305B2
:104D7000440013050501EFD08FB6C5B73E35154782
:104D8000958B6389E70093054500375501001305AE
:104D90000505D5B737590100375B01008144375C01
:104DA0000100B75C0100130989FC375D0100130B9A
:104DB0000BFDB75D010063949B00014545B741467B
:104DC00081450808EFC09FCCEFB0DF801C58AA894E
:104DD0001808DC4B9306007D5686D2852285829783
:104DE000F957631CF502C247D28581C70808C5245C
:104DF000AA85268613854D08EFD06FAEEFB08FFDE4
:104E0000B30935419307803E014563E4370113053B
:104E1000803EEFE0EFC2850479BFFD576319F500CE
:104E2000C247A1E35286DA8513058D0AF1B7AC8239
:104E3000BC8308082EC699EB592C6247B2452A86D6
:104E4000A68613850C0CEFD08FA94DBF4924E247ED
:104E5000B883B2452A86A6861305CC0EEFD02FA8BC
:104E600071BF0808AD242A86CA857DBFEFB26FD70F
:104E70000547631BE500375501001305853DEFD05D
:104E80000FA601456FB02FD8AE87C84301469145A4
:104E9000EFF07FE8FDB7EFB22FD341118307050094
:104EA0000A86AE84328E2543930E0003130F8005CD
:104EB000C14F9542E5431309E0029309C1001387EE
:104EC00007FD1377F70F6365E3162948639AD70147
:104ED0008307150013F7F7FD6307E703050521486E
:104EE000AA85014413F7F70F930607FD93F6F60F13
:104EF0006360D302330488023E94130404FD838765
:104F000015008505C5B78307250041480905C9BFB8
:104F10006319F8039376F7FD9386F6FB9308F7F988
:104F200093F6F60F93F8F80F63EDD2001204A90779
:104F30001307100663F4130113071004998F5D8C97
:104F40007DBF639C27016305360F1106232E86FE65
:104F500013851500838715009DB793F7F7FD81CB67
:104F60005D171377F70F9147014563E1E7063305B6
:104F7000C64109850505914763E0A70A5567931760
:104F800025001307C771BA979C438287B7070001B2
:104F90000145637DF40282471307F00F6368F7024F
:104FA000E2075D8C05459DC013578401931784016A
:104FB000D98FB706FF0013178400758FD98F41670B
:104FC0002180130707F0798C5D8C80C041016FB0A0
:104FD000EFC2C1670145E37BF4FE82479306F00F01
:104FE000E3E6F6FE1247E3E3E6FEE2074207D98F67
:104FF0004DBF1306F00F0145E36A86FC8247E36765
:10500000F6FC9246E364D6FC2247E361E6FCE20745
:10501000C206D58F2207E1BFD5653795010013067B
:10502000600A9385057313054565EFD06F999DBFA1
:10503000014569BF1C414111AE8E3EC60145740059
:10504000294FA5429303F00F930FE00203C8060017
:1050500081473373E80393080101BE98138E17004C
:10506000137EFE0F3357E80313030303238C68FEFC
:105070001377F70F63E7020398A22A88768705055E
:10508000639477026353C8042300F70185061C0864
:10509000930E1700E39CF6FA230007002E854101CA
:1050A00082803A88F28775B79388F7FF93F8F80FF4
:1050B000635DC80013080101C29783C787FF050716
:1050C0002A88A30FF7FEC6875DBF0145C9BFEFB2AF
:1050D0004FB14146938501E6EFF0DFF56FB0AFB217
:1050E000EFB28FAE41112A89AE8401446316940059
:1050F000014541016FB08FB085461306F10081452F
:105100004A85EFB07F8501CD03A5C18E0546930585
:10511000F100EF408035138501E9EFB0FFEA0504A7
:10512000F1B7EFB26FAA41112A89AE840144631628
:105130009400014541016FB06FAC85461306F10044
:1051400081454A85EFB05F8101CD03A5818E05467B
:105150009305F100EF406031138501E7EFB0DFE622
:105160000504F1B7EFB2EFA7411137540100FD5527
:10517000138501E7EFB09FD103A5818E9305F10060
:10518000EF40004C8305F1001305C47FEFC03FF5ED
:10519000F9BFEFB20FA259712A84130600058145A9
:1051A0000810EFB00FA7630404185C403EC48947A1
:1051B0005CC0EFB0506AAA840840B75500009385E0
:1051C00025121C51138B818E938A818E23A2F18E1E
:1051D000EFB0BF8A2685EFB0D068B7650100814681
:1051E000014693850580138501E7EFB03FAB1305BA
:1051F0000010EF40404D2320AB00B755000037654D
:105200000100A147214793060020014693854516DA
:1052100013058580EFD0BFE183270B00AA8913898E
:10522000418E638F070E630D050E37650100130570
:105230000581EFC0DFEA0C403765010013054585A5
:10524000EFC0FFE94E85EFE0EF89014A376C0100BE
:10525000B79C0100378D0100B75D0100FD55138536
:1052600001E9EFB0BFC203A5C18E9305F101EF4084
:10527000203D8307F1016D47639DE702A2475CC0B3
:10528000EFB0705D832509002A8A0840EFB0EFFE79
:105290005285EFB0105D4E85EFD0FFDD138501E73D
:1052A000EFB0BFA503A50A00EF40204765616FB0CE
:1052B0000F9421476386E7001307F007639EE7001A
:1052C000E30E0AF87D1A9C18D2971305CC8923881F
:1052D00007FAEFC0DFE059B735476385E700294794
:1052E0006392E702E30C0AF613854C79EFC03FDFC7
:1052F000D286181013068D3B81452285EF0040664B
:10530000014AA9BFBE851385CD7F3EC6EFC03FDDF4
:105310009C1833874701B247050A2308F7FA3DBFB7
:10532000376501001305058AEFC07FDB41B737659C
:1053300001001305C58BCDBFEFB2AF8AB755010091
:10534000814601469385457E138501E9EFB01F959F
:1053500013050010EF40203723A6A18E01EDD5657F
:105360003755010013066004938545741305C57E07
:10537000EFC01FE5EFB0304E2A84EFC07FD211C9D5
:105380001851B75500009385050E23A8E18EEFB0A4
:10539000CFEE2285EFB0F04C6FB0EF86EFB26F84A6
:1053A000EFB0704B2A84EFC0BFCF11C583A5018F2A
:1053B00099C1EFB08FEC2285EFB0B04A138501E9B7
:1053C000EFB0BF9303A5C18EEF4020356FB0AF8320
:1053D000EFB22F811307E5FF854763FAE7003755E2
:1053E000010013050575EFC09FCF6FB0CF812E84EC
:1053F000AA84EFF07FF403294400B7550100938598
:10540000C5484A85EFB06F8B01E937550100130598
:10541000C577EFC0DFCC25A8B75501009385457B44
:105420004A85EFB08F891DE589476397F400EF0047
:105430001017EFF01FD621A80844EF00F01275F9FD
:105440000C44375501001305C57BEFC05FC9EFF071
:10545000FFF461BF37550100130505755DBFEFA26D
:10546000BFF62A84AE843289084085462686814567
:10547000EFB08FCE01C501456FA05FF8832984018D
:105480004A85EFB00F9AAA854E85EFB03FA06DF523
:10549000084C01468545EFB07FBCF9B7938701EB17
:1054A0009843631BA70089C9EFA2BFF3884FEFB0F1
:1054B000BFB101456FA03FF501458280EFA2FFEF2C
:1054C0005C554111B5CF832AC500032B0501AA8481
:1054D0008149314C9C5863F5F906939B3900014989
:1054E0001DA033048903DC433E940840EFC02FFB2A
:1054F0002AC64840EFC0AFFA32462A8AB307A60050
:10550000637AFB000509DC54DE979843E36BE9FC02
:105510008509C9B719E6631C0A00228541016FA0FD
:105520005FED0C405685EFC04FF375D5E1BF4C40A1
:1055300033054B4152865695EFC02FF261F5F1BF0E
:105540000144E1BFEFA27FE741112A8437690100DE
:10555000B76A0100B7590100376A0100294CB54C00
:10556000504848448145A3070100814BEFC00FD24A
:10557000014B2328040081447D569305F1002285C8
:10558000EFF0FFED5C4863F8F4045C448306F1003F
:1055900013871400BE9494A018C8BA840307F100BE
:1055A000631D8703631B9B0363850B04130509ECD1
:1055B000EFC0FFB24C4813854AEDEFC05FB21385D0
:1055C00009CAEFC0DFB1504848448145EFC00FCC55
:1055D0002328040071B7854BD1B78307840099C392
:1055E000E304F7FC2285EFF07FED5DFD030BF10096
:1055F00061B7E35790F62285EFF05FEC4C4419C594
:105600001C45A9DF10482285829789BF0450B9D470
:105610001C48FD17BE95038B0500238005009C44A4
:105620001048D840B386C70063FDE60288404C446A
:105630003E95EFC02FCE18489C44BA979CC49C4816
:1056400085079CC8830784009DCF639E6703DC4465
:105650009DEB23240402485023200402EFB0DF9680
:10566000F5BDF5571CD4130509ECEFC05FA7CC407E
:1056700037650100130585F1EFC07FA6138509CAC0
:10568000EFC0FFA5C1B7032BC4001305CAF6EFC0D6
:105690000FE12A869305CAF65A85EFC04FD719E164
:1056A000DC44C5DB4844B78501009385C55CEFC089
:1056B0002FE001C5FD571CD479BF832BC400376B85
:1056C000010013050BF7EFC08FDD2A8693050BF75A
:1056D0005E85EFC0CFD379DDD8449C48E390E7E8FE
:1056E000ADFBADBDEFA25FCEAA84AE890545E14515
:1056F0003289EFC0FFE72A8415E5376501001305FD
:1057000005ECEFC0DF9D37650100130545D3EFC001
:105710001F9D37550100130505CAEFC05F9C228508
:105720006FA0DFCDA6850545EFC09FE408C005E961
:1057300037650100130505ECEFC07F9A376501005E
:10574000130585D7EFC0BF9937550100130505CA6A
:10575000EFC0FF982285EFC01FE40144C9B744C0E1
:105760002326340123280400232A24014DBF09CD18
:10577000EFA23FC72A84084119C1EFC0DFE12285AB
:10578000EFC07FE16FA03FC88280EFA2FFC32A84F1
:10579000AE84B289368901EDD965376501001306FB
:1057A000100793850592130585EBEFC07FA15C4040
:1057B00063899700084044C0A685EFC0FFF309C97C
:1057C00008C023263401232A240122856FA01FC389
:1057D0000144E5BFEFA2FFC0032905014111636247
:1057E000B90285C100418544636199042EC6638F67
:1057F000B4022285EFC0B03905052A948504B2456C
:10580000E5B737650100130505EC2EC6EFC03F8DE7
:10581000B24537650100130585E6EFC05F8C37554B
:105820000100130505CAEFC09F8B01442285410189
:105830006FA07FBDEFA25FB9AA842E89004181EDE0
:10584000D965376501001306F00B93854593130561
:1058500045EAEFC0FF9683A90401854463F69900E9
:10586000014422856FA09FB9CA852285EFC0303BD5
:105870006DF92285EFC0B03105052A948504F9BF82
:10588000397122CC26CA4AC806CE36D63AD83EDA74
:1058900042DC46DEAA842E89328401EDD965376563
:1058A00001001306100E9385C594130585EBEFC018
:1058B0003F9101ECD965376501001306200E9385F1
:1058C000C5941305C5EAEFC0BF8FCA852685EFF0E2
:1058D0007FF0FD5719C57010A28532C6EFC09059F0
:1058E000AA87F2406244D24442493E8521618280C7
:1058F000397122CC26CA4AC806CE36D63AD83EDA04
:1059000042DC46DEAA842E89328401EDD9653765F2
:1059100001001306301093854596130585EBEFC003
:105920003F8A01ECD9653765010013064010938565
:1059300045961305C5EAEFC0BF88CA852685EFF0F6
:105940007FEFFD5719C57010A28532C6EFC0905287
:10595000AA87F2406244D24442493E852161828056
:105960001D7122DC26DA4ED606DE4AD8B6C6BAC883
:10597000BECAC2CCC6CE02CE2A84AE84B28901EEA3
:10598000D965376501001306701293854598130594
:10599000C5DBEFC0FF8205EC37650100130505ECA0
:1059A000EFC0EFF337650100130585DCEFC02FF37F
:1059B00037550100130505CAEFC06FF27D59F2504B
:1059C00062544A85D2544259B25925618280584066
:1059D00089476314F7006559FDF0484CFD55EFB059
:1059E0005F8B2324040204D089C423A4040023A8C9
:1059F00004000840F000CE8532CCEF00606B81E8F7
:105A00000149484C23200402EFB05FA04DBFCC48B1
:105A10004850EFB0AFC701C96808EF00E067F95719
:105A20001CD47959F9BF1C54E1DF6808EF00C06647
:105A30002AC637650100130505ECEFC04FEA324670
:105A4000F24537650100130505E1EFC04FE9375511
:105A50000100130505CAEFC08FE87D595DB7EFA2BD
:105A6000BF96832905002A841305C0122E8AEFA051
:105A70005FBB2A86814513050004EFF0BFC605E928
:105A800037650100130505ECEFC06FE537650100D0
:105A9000CE851305C5CCEFC08FE437550100130543
:105AA00005CAEFC0CFE36D594A856FA03F95AA8420
:105AB000484CFD55B76A0100EFB0AFFD04D0EFA030
:105AC0007FB12A8BEFA01FB1330965415285EFA04A
:105AD0005FB56370250537650100130505ECEFC060
